:100000000C94A9040C94F0040C94F0040C94F004E7
:100010000C94F0040C94F0040C94F0040C94F00490
:100020000C94F0040C94F0040C940D280C94DF282C
:100030000C947D1E0C94F0040C94F0040C94F004C9
:100040000C94F0040C94F0040C94F0040C94F00460
:100050000C94F0040C94E51E0C94F0040C94F00441
:100060000C94F0040C94F0040C94F0040C94F00440
:100070000C94F0040C94F0040C94F0040C94F00430
:100080000C94F0040C94F0040C94F0040C94F00420
:100090000C94F0040C94F0040C94F0040C94F00410
:1000A0000C94F0040C94F0040C94F004D806DD06D3
:1000B000E706DB06E006E506E3065B075D07680783
:1000C0005F0761076307650767076A076C076E07C5
:1000D0007907700772077407760778077B07DC14C7
:1000E000DC14161516154B156B159616D2167615CB
:1000F000D216261626168E16D216D216CD16331600
:1001000033163316331633163316331633163316A7
:100110003316331633163316331633163316451685
:100120005216591660166A164D174D175F175F174E
:1001300056175F175F175F174D174D175B175F1740
:100140005F175B174C296E295C2A6E295C2AB3293C
:10015000D6295C2A2B2A3E2A6572676F646F782F36
:100160006572676F646F785F657A5F3338393632EE
:10017000623238646235373635616231613136203A
:1001800040206572676F646F785F657A2D31363114
:100190003230352D36322D673239373331352D64D3
:1001A00069727479006572676F646F782F65726722
:1001B0006F646F785F657A5F333839363262323810
:1001C00064623537363561623161313620402065F1
:1001D00072676F646F785F657A2D313631323035F2
:1001E0002D36322D673239373331352D64697274CB
:1001F00079000000F0A135002B002A00E100E000AA
:1002000000001E0034000400330000684D001F0091
:10021000360012001400E2004C00200037000800F5
:100220000D0052002A002100130018000E0051009A
:100230004A0022001C000C001B00000029002F00B7
:1002400001530000006F0000035330000253000010
:1002500031000000E2002300090007000500000053
:10026000E00024000A000B00100050004B002500A5
:10027000060017001A004F002C0026001500110080
:100280001900E600280027000F0016001D00E700F7
:100290004E002E0038002D00E500E4000000003084
:1002A000010001000100010000003A001E022002CE
:1002B0002202010001003B001F0221022302010073
:1002C0003A703C002F0226022F0001003B703D00D7
:1002D000300227023000010001003E0031023500EB
:1002E000350200003570010001000000010000002F
:1002F00001000100010000000100000034703F0017
:1003000052005100240200004370400024002100EC
:100310001E00010001004100250022001F003700DF
:10032000367042002600230020002700377043006B
:1003300025022E0231002E0001004400450001007C
:1003400001000100000001000100010001000100A6
:100350000000010001000100010001000100010096
:100360000100F20001000100F5000100F000F100C1
:1003700001000100F40001000100F3000100010090
:100380000100010001000100010000000100010066
:100390000100000001000000010001000100000058
:1003A0000100000001000100010001000100000047
:1003B00001000100010001000100A900010001008D
:1003C00001000100AC00AA00B6000100010001001C
:1003D000AB00A800010001000100010001000100C4
:1003E000010001000100AE00010001000000350025
:1003F0002B00E000E100E00000001E0014000400FB
:100400001D00010001001F001A0016001B00E20081
:100410002C00200008000700060001002C0021002D
:1004200015000900190001000100220017000A0050
:1004300005000000010001000100000001000000B3
:100440000100010001000000010000000100230084
:100450001C000B00110000000100240018000D001A
:1004600010000100010025000C000E003600010004
:100470002C00260012000F003700E2002C0027009D
:10048000130033003800E30001002A0001002800B7
:10049000E100E000000000000000000000002A2B46
:1004A0002800000000000000000000000000000024
:1004B0000029000000002C1E34202122243426278D
:1004C000252E362D3738271E1F20212223242526AE
:1004D0003333362E37381F0405060708090A0B0C7C
:1004E0000D0E0F101112131415161718191A1B1CC4
:1004F0001D2F3130232D350405060708090A0B0C82
:100500000D0E0F101112131415161718191A1B1CA3
:100510001D2F3130354C00000000000000000000AD
:1005200000000000000000000000000000000000CB
:1005300000000000000000010101010101000101B3
:1005400001010000000000000000000000000000A9
:10055000010001000101010101010101010101018D
:10056000010101010101010101010101010101017B
:100570000100000001010000000000000000000078
:10058000000000000000000000000000000000006B
:10059000000101010100643214643214783C1E1E13
:1005A000140A050000000001010102020304050510
:1005B0000607090A0B0C0E0F1112141517191B1D33
:1005C0001F212325282A2C2F313436393B3E414325
:1005D00046494C4F5255585A5D6164676A6D707355
:1005E00076797C7F8386898C8F9295989B9EA2A535
:1005F000A7AAADB0B3B6B9BCBEC1C4C6C9CBCED034
:10060000D3D5D7DADCDEE0E2E4E6E8EAEBEDEEF0C3
:10061000F1F3F4F5F6F8F9FAFAFBFCFDFDFEFEFE47
:10062000FFFFFFFFFFFFFFFEFEFEFDFDFCFBFAFAF2
:10063000F9F8F6F5F4F3F1F0EEEDEBEAE8E6E4E2D2
:10064000E0DEDCDAD7D5D3D0CECBC9C6C4C1BEBCC0
:10065000B9B6B3B0ADAAA7A5A29E9B9895928F8C70
:10066000898683807C797673706D6A6764615D5A70
:100670005855524F4C494643413E3B393634312F51
:100680002C2A282523211F1D1B1917151412110FA1
:100690000E0C0B0A090706050504030202010101FD
:1006A0000000000000000000010101010101010142
:1006B0000102020202020202020203030303030315
:1006C00003030404040404040505050505060606E1
:1006D000060607070707080808080909090A0A0A99
:1006E0000A0B0B0B0C0C0C0D0D0D0E0E0F0F0F103B
:1006F00010111111121213131414151516161717C1
:10070000181819191A1A1B1C1C1D1D1E1F1F20202A
:100710002122222324252526272728292A2B2B2C72
:100720002D2E2F2F30313233343536363738393A93
:100730003B3C3D3E3F4041424344464748494A4B8B
:100740004C4D4F50515253555657585A5B5C5E5F53
:10075000606263646667696A6C6D6E7071737476EB
:1007600078797B7C7E8081838486888A8B8D8F914B
:10077000929496989A9B9D9FA1A3A5A7A9ABADAF74
:10078000B1B3B5B7B9BBBDBFC1C4C6C8CACCCFD160
:10079000D3D6D8DADCDFE1E4E6E8EBEDF0F2F5F70A
:1007A000FAFCFF16034500720067006F0044006FFB
:1007B000007800200045005A000000160345007232
:1007C0000067006F0044006F007800200045005A69
:1007D0000000000403090409026D00040100A019CF
:1007E0000904000001030101000921110100012297
:1007F00040000705810308000A0904010001030104
:100800000200092111010001224D000705820308A1
:10081000000A09040200010300000009211101007F
:10082000012236000705830308000A0904030001BA
:10083000030000000921110100012239000705848D
:10084000032000011201100100000008EDFE071353
:1008500001000102000105010906A101050719E0D7
:1008600029E7150025019508750181020508190180
:1008700029059505750191029501750391010507FB
:10088000190029F71500250195F875018102C005A9
:10089000010980A101850216810026B7001A810096
:1008A0002AB700751095018100C0050C0901A1014E
:1008B0008503160100269C021A01002A9C0275106D
:1008C00095018100C005010902A1010901A10005EE
:1008D0000919012905150025019505750181029564
:1008E00001750381010501093009311581257F95C5
:1008F000027508810609381581257F9501750881E3
:1009000006050C0A38021581257F950175088106B8
:10091000C0C005010906A101050719E029E7150076
:100920002501950875018102950175088101050869
:10093000190129059505750191029501750391012C
:100940000507190029FF150026FF00950675088187
:1009500000C011241FBECFEFDAE0DEBFCDBF04B66A
:1009600003FE27C08091300390913103A0913203A0
:10097000B09133038730904BA740B04BD1F4109225
:10098000300310923103109232031092330314BEDD
:1009900084B7877F84BF0FB6F894A89580916000D4
:1009A000886180936000109260000FBEE0E0FFE37A
:1009B000099511E0A0E0B1E0E2E7F8E502C005909A
:1009C0000D92AC3DB107D9F723E0ACEDB1E001C029
:1009D0001D92A033B207E1F70E9452250C94372CE8
:1009E0000C9400001092B9008AE08093B80008953A
:1009F00094EA9093BC009091BC0097FFFCCF90913B
:100A0000B900987F983021F0903111F081E008957D
:100A10008093BB0084E88093BC008091BC0087FF7A
:100A2000FCCF8091B900887F883111F0803471F754
:100A300080E0089584E98093BC008091BC0084FD2F
:100A4000FCCF08958093BB0084E88093BC00809124
:100A5000BC0087FFFCCF9091B900987F81E098326D
:100A600009F480E0089584E88093BC008091BC0084
:100A700087FFFCCF8091BB00089580B38C7080BB52
:100A800081B3836F81BB089580910101811115C0ED
:100A900080E40E94F8048093010181110CC082E17E
:100AA0000E94220580930101811105C08FEF0E94F1
:100AB0002205809301010E941A0584B1807F84B9C8
:100AC00085B1807F85B98AB1837F8AB98BB1837FF5
:100AD0008BB93E984698089508950C94BC060E94E0
:100AE000680B809301010E9444050E943D05ADED15
:100AF000B1E0EBEEF1E08EE08E0F11921D928E13BD
:100B0000FCCF0C9482080E94680B809301010E9424
:100B100044050E943D05ADEDB1E0EBEEF1E08EE065
:100B20008E0F11921D928E13FCCF0895BF92CF921B
:100B3000DF92EF92FF920F931F93CF93DF938091F9
:100B40000101882379F08091DC018F5F8093DC01C3
:100B5000811108C00E94680B80930101811102C0BD
:100B60000E94FA0A0DED11E0C0E0D0E0EE24E3941B
:100B7000F12CDD24D39495E0C92EC730D10500F5C2
:100B80008091010181113CC080E40E94F8048093AF
:100B90000101811112C082E10E94220580930101AE
:100BA00081110BC0C7010C2E01C0880F0A94EAF70F
:100BB00080950E942205809301010E941A0520C0A1
:100BC000CA30A1F028F4C83059F0C93061F005C02E
:100BD000CC3089F070F0CD3089F0209A289810C080
:100BE000219A29980DC0229A2A980AC0239A2B98F4
:100BF00007C0529A01C0539A5B9802C03E9A469829
:100C000080EA8A95F1F7C730D10518F58091010186
:100C1000811144C080E40E94F8048093010188237C
:100C200011F0B12C12C083E10E94220580930101D2
:100C30008111F7CF81E40E94F804809301018111B2
:100C4000F0CF0E943305B82EB0940E941A058B2D68
:100C500026C08FB181708D25799902C092E001C0C4
:100C600090E0892B7C9902C024E001C020E0822B17
:100C70007D9902C028E001C020E0822B7E9902C04D
:100C800090E101C090E0892B9FB19095991F992721
:100C9000991F9295990F907E892B01C080E0F801F1
:100CA0009081981719F08083C09200010E9444053A
:100CB00021960F5F1F4FCE30D10509F05ECF809196
:100CC00000018823A1F0815080930001882329F03E
:100CD000F5E0FA95F1F700000AC0ABEEB1E0EDEDFA
:100CE000F1E0CF01825F91919D938E13FCCF0E9422
:100CF000840881E0DF91CF911F910F91FF90EF90D9
:100D0000DF90CF90BF900895E82FF0E0E551FE4FBF
:100D1000808108950895611108C0FC0182818823B3
:100D200021F085EA91E00E94570880E090E0089564
:100D3000FB01823420E7920769F0833420E79207B1
:100D400089F081349047B1F482818823A1F00E9418
:100D5000F91D0EC08281882371F088E591E00E9420
:100D6000570806C08281882331F081E00E94FA0E84
:100D700080E0089581E0089560917C0270917D0289
:100D800080917E0290917F020E94A91D56985E98E4
:100D900025982D9826982E9827982F9890E0FC015A
:100DA0003197E730F105A8F4EA5AFF4F0C94E92B8C
:100DB000259A2D9A0895259A2D9A269A2E9A089565
:100DC000259A2D9A04C0259A2D9A269A2E9A279A0A
:100DD0002F9A089581E008950C9498060E943B177D
:100DE0002FEF84E39CE0215080409040E1F700C069
:100DF00000000C940A1F0F931F93CF93DF938C0175
:100E0000FC01C081D181CE010E942E1CBE010E9436
:100E10001B0AEC01B8010E94EC06882309F441C1C9
:100E2000B801CE010E94AB0A882309F43AC1B80187
:100E3000CE010E94380C882309F433C1C633F0E791
:100E4000DF0741F4F8018281882309F42AC10E9456
:100E50006A0E27C1C73380E7D80708F099C0C531AB
:100E600090E7D90708F07DC0C230E0E7DE0708F45C
:100E700052C0F8018281882309F459C00E941A1EC9
:100E8000811102C00E94F91D0E942D1E90E09093D6
:100E9000220380932103FE01E350F047E231F10584
:100EA00030F4E35AFF4F809121030C94E92B809199
:100EB0002103816027C0826025C0846023C08061D7
:100EC00021C080621FC080641DC080681BC0846018
:100ED000886018C08E7F16C08D7F14C08B7F12C0B3
:100EE0008F7E10C08F7D0EC08F7B0CC08F770AC0A5
:100EF0008B7F877F07C087FB222720F991E092270D
:100F000090FB87F980932103809121030E94311E79
:100F10000E943B17C6C0C115F0E7DF0779F0C1306A
:100F2000D047A1F081E08093FB018093FC01C801D0
:100F3000DF91CF911F910F910C94EA06F801828105
:100F4000882309F4AEC00E94EE06ABC0F80182818E
:100F5000882309F4A6C08091A90281608093A90228
:100F6000A0C0C43390E7D90741F4F80182818823F7
:100F700009F497C00E94780F94C0C533D04791F60A
:100F8000F8018281882309F48CC00E946E0F89C009
:100F9000CA33F0E7DF0741F4F8018281882309F4BE
:100FA00080C00E94C50E7DC0CB3380E7D807D8F43F
:100FB000F8018281C833F0E7DF0731F4882309F4B0
:100FC00070C00E94A10E6DC0C933D04730F4882391
:100FD00009F467C00E94820E64C0882309F461C0CE
:100FE0000E94B30E5EC0CC33E0E7DE0719F5F801CE
:100FF0008281882351F01092FB010E94AF1E9093D2
:10100000FA018093F90182E02AC08091FB018111ED
:101010000FC08091F9019091FA010E94BB1E883C9B
:10102000910530F486E20E94711386E20E94441416
:1010300082E01DC0CC33F0E7DF07E0F0CD33D047CE
:1010400009F070CFF8018281882361F01092FC01D1
:101050000E94AF1E9093FA018093F90180E20E94F2
:1010600093141FC08091FC01882359F080E20E94F4
:101070009A1417C0F8018281882399F00E94E00E2B
:1010800010C08091F9019091FA010E94BB1E883C2A
:10109000910560F787E20E94711387E20E94441471
:1010A000E5CF80E0DF91CF911F910F9108950F93CD
:1010B0001F93CF938C01F80124912223F9F030E0A3
:1010C000F901EA56FB4FC491F901EA5EFA4F249107
:1010D000222359F081EE0E9471138C2F0E9471130C
:1010E0008C2F0E94441481EE04C08C2F0E94711337
:1010F0008C2F0E9444140F5F1F4FDDCFCF911F91A3
:101100000F9108950C94520B0C946D0508950C9456
:1011100086080C94870826E0729FF001112444E5AC
:10112000849FE00DF11D1124E60FF11DEE0FFF1F4E
:10113000EA50FE4F859194910E942D0A811560E43A
:101140009607B0F5811570E3970708F0E6C0803E7A
:101150009105D8F4803C910508F06CC0883A91055F
:1011600078F4853A910508F06BC08130910509F457
:1011700060C108F417C18430910508F05AC112C14A
:101180008D3B910508F467C00DC18F3F910509F0B3
:1011900048F4803F910508F0B5C0883E910508F4F9
:1011A00048C100C1811520E2920708F0ADC0089542
:1011B000811543E5940790F4811562E5960708F0E0
:1011C000D0C0811571E5970708F0C6C0811520E5EC
:1011D000920708F0A5C09F70906A0895811545E5B3
:1011E0009407D8F4811564E5960708F0D0C0482F1D
:1011F0004695469570E2479FA00111248370992778
:1012000021E030E0B90102C0660F771F8A95E2F74E
:10121000CB01842B952B9A680895811576E5970765
:1012200008F4BAC09C0130562115304108F0BAC00C
:101230009F70B6C0FC01EE0FFF1FEE58FF4F6AC053
:10124000853A910509F4B1C0863A910509F0B0C01C
:1012500082E890E40895883A910509F4ACC0893A8F
:10126000910509F4ABC08A3A910509F4AAC08B3AFA
:10127000910509F4A9C08C3A910509F4A8C08B3BEB
:10128000910509F4A7C08C3B910509F4A6C08D3ADD
:10129000910509F4A5C0803B910509F4A4C08E3ADC
:1012A000910509F4A3C08F3A910509F4A2C0813BCE
:1012B000910509F4A1C0823B910509F4A0C0833BCC
:1012C000910509F49FC0843B910509F49EC0853BBC
:1012D000910509F49DC0863B910509F49CC0873BAC
:1012E000910509F49BC0883B910509F49AC0893B9C
:1012F000910509F499C08A3B910509F498C080E0F2
:1013000094E4089590650895FC01FF70EE0FFF1FAF
:10131000EE50FE4F8591949108959927906C089511
:10132000482F437021E030E002C0220F331F4A955E
:10133000E2F73C68AC0164E0569547956A95E1F7A1
:101340004370342B8F708695869560E2869FC0012E
:101350001124822B932B0895982F8827816F906AF0
:101360000895482F4695469570E2479FA0011124A5
:101370008370992721E030E0B90102C0660F771F22
:101380008A95E2F7CB01842B952B9C680895982FC2
:101390008827846F906A08958F719927982F8827DE
:1013A0009062089580E090E0089581E890E40895C7
:1013B00083E890E4089582EE94E4089589EE94E43D
:1013C00008958AEE94E4089585EB94E4089586EBFD
:1013D00094E4089583EB94E4089584EB94E40895F1
:1013E00087EB94E408958CEC94E408958DEC94E4F8
:1013F000089583E895E408958AE895E4089582E9DC
:1014000095E4089584E995E4089581E296E40895C9
:1014100083E296E4089584E296E4089585E296E4F2
:10142000089586E296E4089587E296E408958AE2B4
:1014300096E40895089596E0799FF001112494E5CB
:10144000899FE00DF11D1124E60FF11DEE0FFF1F26
:10145000EA50FE4F8591949108958238910549F1A3
:10146000B0F48133910509F458C048F489329105EC
:1014700009F44EC08A32910509F454C008958533A9
:10148000910509F440C08933910599F00895833E90
:10149000910529F138F4803E910591F0823E910545
:1014A000A1F00895863E9105F9F0873E910531F14E
:1014B00008952091210320FD3AC021FD38C00895F0
:1014C0008091210380FD35C032C08091210382FFCD
:1014D00032C08091210384FD30C083EE39C08091F9
:1014E000210382FD28C0F5CF8091210383FF27C00F
:1014F0008091210384FD21C087EE2AC080912103C1
:1015000083FD1DC0F5CF8091210385FD1AC01BC04E
:101510008091210385FD17C014C08091210386FDB1
:1015200014C015C08091210386FD11C00EC080EE4D
:101530000FC089E30DC082EE0BC080E009C086EECB
:1015400007C089E205C085E303C08AE201C081E3E8
:1015500090E0089508950F931F93CF93FB0122818C
:10156000211102C0C1E041C08C01C0910A02C11129
:1015700025C085319047B1F70E94AA0A81E0809387
:101580000A020E94AF1E90930902809308021092F3
:10159000FD011092FF011092FE01109201021092C3
:1015A00000021092030210920202109205021092A1
:1015B0000402109207021092060217C080910802DE
:1015C000909109020E94BB1E883C910558F69091AB
:1015D000FD01E92FF0E0EE0FFF1FE250FE4F1183F7
:1015E00000839F5F9093FD01C0E08C2FCF911F91EE
:1015F0000F91089556985E9825982D9826982E98C4
:1016000027982F988FEF90E090938900809388001F
:1016100090938B0080938A0090938D0080938C0030
:10162000259A2D9A2FEF80E792E02150804090403C
:10163000E1F700C00000269A2E9A2FEF80E792E093
:10164000215080409040E1F700C00000279A2F9A77
:101650002FEF80E792E0215080409040E1F700C0FA
:10166000000025982D982FEF80E792E021508040D0
:101670009040E1F700C0000026982E982FEF80E7F9
:1016800092E0215080409040E1F700C00000279890
:101690002F9856985E9825982D9826982E982798DA
:1016A0002F98089589EA8093800089E080938100D3
:1016B00024982C983F988AB18F7C8AB96E98479A63
:1016C0008BB180638BB9769A0E94FA0A0C946C05F0
:1016D000CF9380E280930101CFB7F89480910B0201
:1016E00081110EC00E94F20481E080930B022FEF63
:1016F00083ED90E3215080409040E1F700C000006E
:1017000080E40E94F8048093010181112EC00E94A0
:10171000220580930101811128C00E942205809337
:101720000101811122C08FE30E94220580930101F3
:1017300081111BC00E941A0580E40E94F804809366
:101740000101811112C08CE00E94220580930101E9
:1017500081110BC00E94220580930101811105C0F7
:101760008FE30E942205809301010E941A05CFBFDA
:1017700080910101CF910895282F882339F090E0BE
:101780002A3010F44D9608950697089587E290E068
:10179000089580910C028130A1F078F0823011F12F
:1017A000843049F586EE0E94711386EE0E9444143F
:1017B00088E10E94711388E11CC082EE0E947113BF
:1017C0001AC080EE0E94711381EE0E94711388E1AD
:1017D0000E94711388E10E94441481EE0E94441417
:1017E00080EE07C082EE0E94711387E50E9471139C
:1017F00087E50E9444148FE39CE90197F1F700C04C
:101800000000089580910C02813029F010F08230A0
:1018100041F482EE04C08CE20E9471138CE20C94BD
:1018200044140895EF92FF921F93CF93DF937C01AE
:10183000CCE0D0E097010C2E02C0369527950A9493
:10184000E2F7122F1F70812F0E94BC0B0E947113B0
:10185000812F0E94BC0B0E9444142497CC3F8FEF31
:10186000D80741F7DF91CF911F91FF90EF90089536
:10187000CF93DF93813020E8920768F0FB0122814B
:10188000222349F0EC010E94C90BCE019F770E94F0
:10189000120C0E94020C81E0DF91CF910895882301
:1018A00019F05198599A02C0519A59985098589ADB
:1018B00095E09A95F1F70000509A589895E09A951E
:1018C000F1F70000882311F0519A599885E08A9524
:1018D000F1F7000008958BB18C7F8BB95098589A1E
:1018E0005198599A85E08A95F1F7000008958AB1D8
:1018F0008C7F8AB985E08A95F1F70000519A599852
:1019000085E08A95F1F70000509A589885E08A950D
:10191000F1F7000008955098589A85E08A95F1F7FC
:1019200000005198599A85E08A95F1F700000895D2
:10193000CF93DF93D82FC8E08D2F80780E944F0C73
:10194000DD0FC150C9F780E00E944F0C85E08A95F9
:10195000F1F7000085E08A95F1F7000080E0DF9163
:10196000CF9108952BB1342F309523233BB1432BD6
:101970003FB7F894FC01680F791FE617F70789F065
:10198000819198E04BB9000000C087FF2BB9880F08
:10199000000000C000C000C02BB900C09A9591F7AC
:1019A000ECCF3FBF0895AF92BF92CF92DF92EF92FC
:1019B000FF920F931F93CF93DF938C01EB01CFB670
:1019C000D090BC00F8948091BC008B7F8093BC00C9
:1019D0000E946B0C0E94770C84E80E94980CCC0F3C
:1019E000DD1FCC0FDD1F78015801AC0EBD1EEA14BF
:1019F000FB0431F0F70181917F010E94980CF7CF31
:101A00000E948B0CCFBED092BC00579A40E8BE011A
:101A1000C801DF91CF911F910F91FF90EF90DF9060
:101A2000CF90BF90AF900C94B20CEF92FF920F93B7
:101A30001F93CF93DF93E901662309F44BC0242F52
:101A400030E0EFEFF0E0E61BF109B901E69F90010D
:101A5000E79F300DF69F300D1124232F8B01031BC0
:101A600011095CE3E52EF12CB7010E94C12BFB01AB
:101A7000BC01069FC001079F900D169F900D112479
:101A8000B7010E94C12BE230F105B1F040F430976C
:101A900079F0319711F5832F242F461B21C0E430B4
:101AA000F105A1F068F03597C1F4842F861B18C0AA
:101AB000832F262F230F14C0862F830FE42F03C0FC
:101AC000E42FE61B842F432F2E2F0AC0842F462F8E
:101AD000430F06C0842F242F03C080E020E040E0A5
:101AE000E42FF0E0ED55F94F4491E22FF0E0ED5591
:101AF000F94F9491E82FF0E0ED55F94FE4914983C7
:101B00009883EA83DF91CF911F910F91FF90EF901F
:101B1000089588E090E00C94F72BAB01BC0188E0BD
:101B200090E00C94152CE9EDF2E083E080831092B4
:101B3000DA028FEF828383836091D9027091DA0297
:101B40008091DB029091DC020C948D0D8091D90282
:101B500080FF06C06FE070E081EE92E00C94D30C41
:101B600080E090E0FC01EF51FD4F11821082128263
:101B700004968C339105B1F7EDCF20E030E0F90108
:101B8000EF51FD4F8183608342832C5F3F4F2C33A5
:101B90003105A9F70C94A60DEF92FF920F931F93B6
:101BA000CF93DF9300D000D0CDB7DEB70091D9023C
:101BB0001091DA022091DB023091DC020093DD0209
:101BC0001093DE022093DF023093E0022091D902CD
:101BD00020FF21C0042FF62EE92E182F9E012F5F23
:101BE0003F4F0E94150D8091DD0210FB87F9809315
:101BF000DD0216958091DE028078182BE0FA17F945
:101C00001093DE02F092DF020093E0024B816981C3
:101C10008A810E94BD0D0F900F900F900F90DF9161
:101C2000CF911F910F91FF90EF9008950F931F9305
:101C3000CF93DF93EC01062F142F9091D90290FFE0
:101C400044C0892F8E77823021F4CE010E94CC0DC2
:101C50001BC0892F86958F732EE3280F2F73243096
:101C600018F41091DC0210C0865C8F73893060F428
:101C7000C92FCC1FCC27CC1FD091DA028D2F880F13
:101C8000C82BD7FBDD27D0F98091D902C0FB87F99B
:101C90008093D902C6958091DA028078C82BD0FB58
:101CA000C7F9C093DA020093DB021093DC02609163
:101CB000D9027091DA028091DB029091DC02DF910F
:101CC000CF911F910F910C948D0DDF91CF911F91AA
:101CD0000F910895E9EDF2E02081221F2227221FB3
:101CE0003091DA02432F440F842F822B37FB992740
:101CF00090F90C9668E671E00E94D52B43816281D1
:101D00000C94160E2091D902221F2227221F3091F7
:101D1000DA02432F440F842F822B37FB992790F947
:101D20008C3091051CF4845A9E4F01C00C9768E6D4
:101D300071E00E94D52B4091DC026091DB020C9493
:101D4000160EE9EDF2E08081881F8827881F9091A8
:101D5000DA02292F220F97FB992790F943816FEF21
:101D6000822B0C94160EE9EDF2E08081881F882703
:101D7000881F9091DA02292F220F97FB992790F95B
:101D8000438160E0822B0C94160E4091DC02842F7C
:101D900090E0843F910514F4445F01C04FEF8091BF
:101DA000D902881F8827881F9091DA02292F220FD5
:101DB00097FB992790F96091DB02822B0C94160E09
:101DC0004091DC02842F90E00C9714F04C5001C03D
:101DD00040E08091D902881F8827881F9091DA02FD
:101DE000292F220F97FB992790F96091DB02822B14
:101DF0000C94160E9091D90290FF3BC091788111FE
:101E000002C0926007C0883110F09E6203C08F73D9
:101E1000880F982B9093D9026091D9027091DA02C1
:101E20008091DB029091DC020E948D0D8091D9029D
:101E3000982F9E77923019F410921E0209C0982FA5
:101E40009695925C9F73963118F491E090931E02E0
:101E5000881F8827881F9091DA02292F220F97FB6D
:101E6000992790F94091DC026091DB02822B0C945F
:101E7000160E08958091A90281608093A90281E0E5
:101E800080931F020E941A1E811104C00E94F91D36
:101E90000E94930D0E94890D6093D9027093DA021B
:101EA0008093DB029093DC026E7761F40E94930DC5
:101EB0000E94890D6093D9027093DA028093DB024D
:101EC0009093DC0281E080931E028091D90280FF12
:101ED00004C086958F730C94FA0E08958091D902F0
:101EE00086958F738F5F883108F081E00C94FA0E2D
:101EF0008091D902982F909590FB80F98093D90218
:101F00006091D9027091DA028091DB029091DC023B
:101F10000E948D0D8091D90280FF04C086958F7339
:101F20000C94FA0E10921E022FEF80E792E02150DF
:101F300080409040E1F700C000000C94A60DCF93C4
:101F4000C82F80911C0290911D020E94BB1EEC2F95
:101F5000F0E0E156FA4FE491F0E08E179F0718F198
:101F60000E94AF1E90931D0280931C02E0911B0201
:101F7000F0E0ED55FA4F44918091D902881F8827EF
:101F8000881F9091DA02292F220F97FB992790F949
:101F90006091DB02822B0E94CC0D80911B0290E0AD
:101FA000019680931B02CF910895CF93C82F809103
:101FB000190290911A020E94BB1EEC2FF0E0E45629
:101FC000FA4FE491F0E08E179F07E8F00E94AF1EF1
:101FD00090931A02809319024091DC026091DB0217
:101FE00080911702909118020E94CC0D80911702E7
:101FF00090911802019668E671E00E94C12B9093BF
:10200000180280931702CF910895CF92DF92FF922A
:102010000F931F93CF93DF93F82E80911502909129
:1020200016020E94BB1EEF2DE695F0E0E456FA4F33
:10203000E491F0E08E179F07E8F10E94AF1E9093A5
:1020400016028093150201EE12E0C0E0D0E088E6AF
:10205000C82EDD24D39480911302909114028C0F2A
:102060009D1FB6010E94C12B98014091DC02609136
:10207000DB020E94150D68960C5F1F4FC83681E089
:10208000D80749F70E94A60D20911302309114023F
:10209000F0FE0AC0C9010196BE010E94C12B9093B7
:1020A00014028093130206C02150310930931402A8
:1020B00020931302DF91CF911F910F91FF90DF903A
:1020C000CF9008958F929F92AF92BF92CF92DF925E
:1020D000EF92FF920F931F93CF93DF93C82F80FF50
:1020E00003C0DD24DA9402C0DD24D3948091110270
:1020F000909112020E94BB1EC695EC2FF0E0E756AD
:10210000FA4FE491F0E08E179F0708F467C00E9431
:10211000AF1E909312028093110291EEE92E92E08D
:10212000F92E03EE12E0C0E0D0E027E0822E912CE1
:10213000F80131971082F7011082F801108287E0D0
:10214000A82EB12CC12C809110028C0D87FD815FCF
:10215000082E000C990BC817D907E9F42091DC026E
:102160002A9DC0012B9D900D1124B4010E94D52BF6
:10217000462F8091D902881F8827881F9091DA0204
:10218000592F550F97FB992790F997016091DB0222
:10219000852B0E94150DCD0CF1E0AF1AB10899F610
:1021A000219684E0E80EF11C0C5F1F4FCF30D10563
:1021B00009F0BECF0E94A60D8091100291E0D912C5
:1021C00006C0811102C08EE007C0815005C090E0BA
:1021D0000196BE010E94D52B80931002DF91CF9112
:1021E0001F910F91FF90EF90DF90CF90BF90AF9035
:1021F0009F908F9008959F92AF92BF92CF92DF925F
:10220000EF92FF920F931F93CF93DF93CDB7DEB77B
:10221000EC970FB6F894DEBF0FBECDBF182F80919C
:102220000E0290910F020E94BB1EE12FF0E0EA56D1
:10223000FA4FE491F0E08E179F0708F495C00E94D2
:10224000AF1E90930F0280930E02CE0101967C0187
:102250005E0193E0A90EB11CC12CD12C8701F501C0
:1022600031971082F7011082F5011082912C909124
:10227000020180910D02999E800D112487FD04C0FA
:102280008F301CF08EE001C080E0082E000C990B0E
:10229000C816D906A1F48091D902881F8827881F03
:1022A0009091DA02592F550F97FB992790F99701D2
:1022B0004091DC026091DB02852B0E94150D939406
:1022C000F7E09F12D4CF8FEFC81AD80A94E0E90E36
:1022D000F11CE4E0AE0EB11CFFE0CF16D10409F012
:1022E000BECF23EE32E099E0E92EF12C4FE0C42E70
:1022F000D12CC701B6010E94D52BD9011197FC0141
:10230000EE0FFF1FEE0FFF1FE00FF11F81818C9377
:10231000119780818C938281F9018083FFEFEF1AFE
:10232000FF0A2C5F3F4F88E1E816F10411F70E9485
:10233000A60D9091020180910D02913049F48A3FDF
:102340002CF489EF80930D028FEF08C081500AC0F2
:1023500086313CF085E180930D0281E0809302019B
:1023600003C08F5F80930D02EC960FB6F894DEBF2A
:102370000FBECDBFDF91CF911F910F91FF90EF90D6
:10238000DF90CF90BF90AF909F90089580911E02F4
:10239000882361F18091D90286958F739EE3980F0F
:1023A0009F73943018F482500C949F0F9AE3980F07
:1023B0009F73933018F486500C94D50F97E3980FC1
:1023C0009F73963018F489500C94051091E3980F80
:1023D0009F73963018F48F500C9462109BE2980F04
:1023E0009F73933018F485510C94FB1008959093CB
:1023F0002502809324020895E0912402F0912502A1
:10240000309721F00190F081E02D099480E008954B
:10241000E0912402F0912502309721F00280F381AF
:10242000E02D09940895E0912402F091250230975F
:1024300021F00480F581E02D099408952091220275
:10244000309123028217930771F0909323028093B7
:102450002202E0912402F0912502309721F00680BB
:10246000F781E02D099408952091200230912102F6
:102470008217930771F09093210280932002E091DC
:102480002402F0912502309721F00084F185E02D9F
:102490000994089508950C944A120E94A61E0E9461
:1024A0006F050E942C1F0C943A0FCF92DF92EF928F
:1024B000FF920F931F93CF93DF93CDB7DEB72B9788
:1024C0000FB6F894DEBF0FBECDBF0E94960587E21F
:1024D000C82E82E0D82E00E010E0E02E802F0E946F
:1024E0008406F60141916F01F42EF826B1F40F5FD6
:1024F0001F4F0E30110589F78FEF89838A831B8266
:102500000E94AF1E8160782F9D838C8349815A8100
:102510006B818D810E94341340C09091A90291FF7C
:1025200004C08B870E948A068B8520E030E04F2D07
:1025300050E0922FBA01022E02C0759567950A9459
:10254000E2F760FF24C02E83EF8221E030E06901D2
:1025500002C0CC0CDD1C9A95E2F790E08C219D2105
:10256000892B09F420E028870E94AF1E8160782F14
:102570009A8789874E815F8168858A850E94341396
:10258000F801E95DFD4F8081C826C08206C02F5F3B
:102590003F4F2630310569F6AACF0E94BF20109127
:1025A00026020E94FC111817A1F00E94FC118093D2
:1025B00026022B960FB6F894DEBF0FBECDBFDF917B
:1025C000CF911F910F91FF90EF90DF90CF900C94DF
:1025D00089082B960FB6F894DEBF0FBECDBFDF91F2
:1025E000CF911F910F91FF90EF90DF90CF900895C2
:1025F000DC0111962C9111978C91682F70E041E0CD
:1026000050E001C0440F8A95EAF712968C91129718
:1026100030E0882329F0809143028823E9F006C046
:10262000F901EB5CFD4F90819423B1F086E0829F2D
:10263000F001839FF00D1124E60FF71FEE0FFF1F2F
:10264000EB5EFE4F808191818D939C93F901EB5C51
:10265000FD4F8081482B06C0F901EB5CFD4F409592
:102660008081482340830895CF93DF93CDB7DEB7B1
:102670002B970FB6F894DEBF0FBECDBF942F4F83BC
:10268000252F588769877A878B874A855B85452BF5
:1026900021F02F3F09F59F3FF9F4DE01119686E006
:1026A000FD0111928A95E9F785E0FE0137960190C8
:1026B0000D928A95E1F749815A816B817C818D81E8
:1026C0009E810E94D3192B960FB6F894DEBF0FBEE1
:1026D000CDBFDF91CF910895CE0107960E94F812E9
:1026E000DCCFCF93882309F4CDC0C82F823859F4AA
:1026F0000E94FC1181FDC6C089E30E94AD1C0E94AE
:102700007A1D89E30CC0833879F40E94FC1180FDA6
:10271000B9C083E50E94AD1C0E947A1D83E50E942A
:10272000EF1CCF910C947A1D843859F40E94FC114F
:1027300082FDA8C087E40E94AD1C0E947A1D87E438
:10274000EECF8CEF8C0F813A48F48C2F0E94FF2241
:10275000811198C08C2F0E94AD1CE3CF80E28C0FBA
:10276000883048F4C77081E001C0880FCA95EAF745
:102770000E94331DD6CF8BE58C0F833078F4C53A99
:1027800029F0C63A31F083E890E005C081E890E096
:1027900002C082E890E0CF910C941E1288E58C0F65
:1027A000853108F06FC0C83A61F1C93A69F1CA3A97
:1027B00071F1CB3A79F1CC3A81F1CB3B89F1CC3B49
:1027C00091F1CD3A99F1C03BA1F1CE3AA9F1CF3ABE
:1027D000B1F1C13BB9F1C23BC1F1C33BC9F1C43B4B
:1027E000D1F1C53BD9F1C63BE1F1C73BE9F1C83BAB
:1027F000F1F1C93BF9F1CA3B09F43FC080E090E038
:102800003EC082EE90E03BC089EE90E038C08AEE98
:1028100090E035C085EB90E032C086EB90E02FC0B1
:1028200083EB90E02CC084EB90E029C087EB90E034
:1028300026C08CEC90E023C08DEC90E020C083E8B3
:1028400091E01DC08AE891E01AC082E991E017C0CA
:1028500084E991E014C081E292E011C083E292E049
:102860000EC084E292E00BC085E292E008C086E2EE
:1028700092E005C087E292E002C08AE292E0CF9146
:102880000C943412CF910895882309F44BC08238F8
:1028900059F40E94FC1181FF45C089E30E94AD1CE0
:1028A0000E947A1D89E30CC0833871F40E94FC11E8
:1028B00080FF38C083E50E94AD1C0E947A1D83E52D
:1028C0000E94EF1C0C947A1D843859F40E94FC116C
:1028D00082FF28C087E40E94AD1C0E947A1D87E415
:1028E000EFCF9CEF980F913A58F390E2980F983001
:1028F00050F4877091E001C0990F8A95EAF7892F0B
:102900000E94391DDFCF9BE5980F933020F480E0C3
:1029100090E00C941E12885A853120F480E090E0FB
:102920000C9434120895882321F00E94331D0C94D6
:102930007A1D0895882321F00E94391D0C947A1D78
:1029400008958F929F92AF92BF92CF92DF92EF92B3
:10295000FF920F931F93CF93DF931F92CDB7DEB7F4
:102960007C01C72EFC01058102950F701281112395
:1029700021F069830E94501D698169830E94A61C11
:102980006981882381F0112371F080E2860F8830FD
:1029900050F082E00E948F1C0E94A61C91E0D82E6D
:1029A000D926698101C0D12CEC2DE295EF70F0E0C1
:1029B000E159FF4F0C94E92B8C2D807F0C2D0F706B
:1029C000882311F00295007F1123C1F0002309F440
:1029D0009BC180E2860F883010F0611105C0802F06
:1029E00069830E94331D04C0802F69830E94431DA8
:1029F000698169830E947A1D698186C1862F6983F6
:102A00000E9444146981002309F4CCC180E2860F3E
:102A1000883010F0611104C0802F0E94391D03C05E
:102A2000802F0E94491D0E947A1DBCC19C2D907F61
:102A30008C2D8F70903211F08295807F662319F073
:102A40006130B1F01EC0112349F0002309F414C114
:102A5000013009F011C10E94631DA4C1002319F0C7
:102A6000013009F49FC189830E94661D89810AC1D2
:102A7000112321F0023008F095C1FEC0011192C16E
:102A800001C1112321F0002309F4F6C03DC1002348
:102A900009F4F8C03FC18C2D86958695837090E02F
:102AA000009719F0019761F07DC1112321F0862F65
:102AB0009C2D937002C080E090E00E941E1272C1B3
:102AC000112321F0862F9C2D937002C080E090E0AE
:102AD0000E94341267C1862F112319F00E94C71F6C
:102AE00002C00E942F200E94B4205CC18C2D8370F4
:102AF00009F052C0111156C1862F829586958770B4
:102B0000880F880F962F9F70892E912CA12CB12CA5
:102B1000082E04C0880C991CAA1CBB1C0A94D2F76E
:102B200064FF14C00FE010E020E030E0B901A8011C
:102B300004C0440F551F661F771F8A95D2F7CB013B
:102B4000BA01609570958095909503C060E070E043
:102B5000CB012C2D26952695237030E022303105AF
:102B600069F02330310589F0682979298A299B2960
:102B70002130310571F00E941B1B14C1682979298D
:102B80008A299B290E94371B0DC10E941B1BC5016E
:102B9000B4010E94FF1A06C1112319F08C2D817017
:102BA00001C08695882309F4FDC0862F82958695FD
:102BB0008770880F880F962F9F70892E912CA12CDB
:102BC000B12C082E04C0880C991CAA1CBB1C0A94AA
:102BD000D2F764FF14C00FE010E020E030E0B9014C
:102BE000A80104C0440F551F661F771F8A95D2F7AE
:102BF000CB01BA01609570958095909503C060E017
:102C000070E0CB012C2D269526952370422F50E0A5
:102C10004230510569F04330510589F0682979291E
:102C20008A299B294130510571F00E94F51BBAC0D9
:102C3000682979298A299B290E94111CB3C00E9406
:102C4000F51BC501B4010E94D91BACC0862F90E0D2
:102C5000FC01E05EF109E531F10508F051C0E158F1
:102C6000FF4F0C94E92B062F0F708C2D8F711123C1
:102C700031F00E94721B802F0E94931493C00E9417
:102C8000931B802F0E949A148DC0112339F00111DB
:102C900089C08C2D8F710E94B81B84C0023008F04F
:102CA00081C0F7CF112339F08C2D8F710E94721BD8
:102CB00079C01123C9F38C2D8F710E94931B72C0B0
:102CC000112329F08C2D8F710E945D1B6BC00E9417
:102CD000531B68C0112351F01C2D1F71812F0E94BE
:102CE000721B63E0812F0E94861C5CC081E00E9401
:102CF0008F1C023008F456C082E00E948F1C52C024
:102D0000112331F0002381F2862F0E9471134AC0F3
:102D1000002389F2862F0E94441444C04C2D4F702A
:102D2000C7010E948B060E94771A3CC0623F99F14E
:102D300028F4603F49F0613FE1F020C0643FA1F01A
:102D400050F0653F59F01AC0112339F190914302B8
:102D500081E0892706C081E018271DC011111DC020
:102D600081E08093430219C0111117C010924302F1
:102D700014C0002381F0111110C0E8CF002359F0D6
:102D8000862F6983112319F00E94711302C00E94DB
:102D90004414698102C0109343024C2D4F70C70147
:102DA0000E941A0ADD20F1F00E94821C80FD1AC0E8
:102DB000F70112820E947C1C0E94721BC7010E94B4
:102DC00000170E947C1C0F90DF91CF911F910F91F3
:102DD000FF90EF90DF90CF90BF90AF909F908F903B
:102DE0000C94931B0F90DF91CF911F910F91FF9047
:102DF000EF90DF90CF90BF90AF909F908F9008950D
:102E00000F931F93CF93DF93EC01888199812B81DE
:102E10003C81232BB9F09F3F11F48F3F99F0CE01F5
:102E20000E94FB06882371F0688179818A810E9463
:102E3000781C8C010E942D1C0E94F41AB801CE014E
:102E40000E94A114DF91CF911F910F9108950E94CC
:102E5000501D0E94601D0E94251D0E947A1D0E9427
:102E600064210E94B42080E090E00E941E1280E065
:102E700090E00C9434120E94401D0C9427170E947D
:102E80006D1CE92FE295EF70F0E03297EE30F1051E
:102E9000B0F4EC56FF4F0C94E92B803F91F018F4FE
:102EA000803E68F40EC0843F51F40BC0803E48F071
:102EB000813F29F406C093FB882780F9089580E0BC
:102EC000089581E00895CF93DF9300D000D01F9242
:102ED000CDB7DEB70F900F900F900F900F90DF914E
:102EE000CF910895CF93DF9300D000D000D0CDB71D
:102EF000DEB726960FB6F894DEBF0FBECDBFDF91CA
:102F0000CF9108951F93CF93DF93C091440216E0B1
:102F100080914502C81799F0D0E01C9FF0011D9FD9
:102F2000F00D1124EA5BFD4F408151816281738174
:102F3000848195810E9472172196C770E9CFDF9135
:102F4000CF911F9108954091760250917702609140
:102F500078027091790280917A0290917B020C94B0
:102F6000721780917B0282958F7009F054C0809116
:102F70007802882309F44FC080914402A091450251
:102F800060917602709177024091790250917A02B5
:102F9000B6E08A1709F43FC090E041155105C1F130
:102FA0007F3F11F46F3FA1F1B89FF001B99FF00D81
:102FB0001124EA5BFD4F218172132AC02081621324
:102FC00027C02281211124C0238134812417350791
:102FD00010F421503109241B350B283C3105C0F475
:102FE00020917B022F70206120937B0226E0289F96
:102FF000F001299FF00D1124E55BFD4F80818F705A
:103000008061808386E792E00E9400170C9482170B
:1030100001968770BECF0895CF92DF92EF92FF9214
:103020000F931F93CF93DF93CDB7DEB762970FB6A1
:10303000F894DEBF0FBECDBF8C0185E0F801DE0144
:103040001D9601900D928A95E1F7D8014C91119649
:103050005C91119712966C9112971396CD90DC901B
:103060001497309176027091770280917902909155
:103070007A02009709F46BC17F3F19F43F3F09F4CE
:1030800066C1E0907802EE2009F4C0C020917B0276
:10309000C816D90628F0F601E81BF90BCF0104C0C9
:1030A000809590958C0D9D1DFF24F394883C91058F
:1030B00078F0F12C207F09F0C6C07C2DD98AC88A0F
:1030C00089890E94631786E792E00E940017B1C0C9
:1030D000822F807F09F046C0751314C0341312C0CC
:1030E000611110C02F70206120937B020E94A317F2
:1030F00086E792E00E94001780917B02D801159626
:103100008C932EC0CD2819F15F3F11F44F3FF9F099
:10311000F62E61111CC0809144022091450236E0D8
:10312000821709F45AC090E0389FF001399FF00DE2
:103130001124EA5BFD4F7181571306C0708147135C
:1031400003C07281711103C001968770E9CFF62E1A
:10315000662309F418C180917B02816080937B0211
:10316000F12C11C1751308C0341306C0611104C0DD
:1031700080917B02D801C3C04D875E878D859E8577
:103180006A8B0E943F176A898823E1F16623D1F197
:1031900020917B02822F82958F7090E0029774F0CD
:1031A000809176029091770298878F831986DB86CB
:1031B000CA862C87CE0107960E94001786E0F80188
:1031C000A6E7B2E001900D928A95E1F70E94B1174F
:1031D0000E94A317FF24F394D6C04D875E878D8588
:1031E0009E850E946D1C292F22952F7030E0223081
:1031F00031050CF0BCC09F7009F0B6C0805E88300D
:1032000008F4C1C0C8010E940017E4CFC816D9064F
:1032100008F453C0F601E81BF90BCF01883C910577
:1032200008F450C0F12C7C2DD98AC88A89890E9463
:103230006317E6E7F2E086E0DF011D928A95E9F781
:103240000E94A317A0C0751314C0341312C06111DB
:1032500010C080917B02F8018583C8010E9400178D
:1032600086E0E6E7F2E0DF011D928A95E9F7FE2CA1
:103270008AC04D875E878D859E856A8B0E943F1729
:103280006A89882309F4BECF662309F4BBCF209155
:103290007B02822F82958F7090E002970CF48ECF84
:1032A00080917602909177029A8389831B82DD82D6
:1032B000CC822E83CE0101967FCF809590958C0D88
:1032C0009D1DACCFF62E662309F49CCF75132EC03E
:1032D00034132CC020917B0220FD1FC0822F8295C9
:1032E0008F70D9F0D80115962C9315978F3049F02F
:1032F0008F5F982F9295907F822F8F70892B1596D4
:103300008C93C8010E94001786E0F801A6E7B2E09E
:1033100001900D928A95E1F793CF86E0F801A6E738
:10332000B2E001900D928A95E1F72DC04D875E873E
:103330008D859E850E943F17811140CF80917B0231
:10334000816080937B02C8010E9400171CC0662325
:1033500009F458CF4D875E878D859E850E943F1763
:10336000882309F44FCF2ACF811148CF0CC02430D5
:1033700031050CF047CF9F7009F440CFF8019581DB
:10338000907F09F03BCF8F2D62960FB6F894DEBF89
:103390000FBECDBFDF91CF911F910F91FF90EF90A6
:1033A000DF90CF9008951F93CF93DF93CDB7DEB713
:1033B0002C970FB6F894DEBF0FBECDBF4F83588752
:1033C00069877A878B879C87CE0107960E940C18A5
:1033D000882369F08F8198852A853B85232BF1F11D
:1033E0009F3F09F063C08F3F09F060C037C086E09F
:1033F000FE013796DE01119601900D928A95E1F754
:103400006F817885EA85FB85309741F17F3F11F424
:103410006F3F21F12091450230E0C901019687708C
:1034200099274091440250E08417950709F447C05A
:1034300069837A83FD83EC8396E0929FD001939F0A
:10344000B00D1124AA5BBD4FFE01319601900D9283
:103450009A95E1F7809345020E94821716E08091C9
:103460004402909145028917C1F1189FC0011124AF
:103470008A5B9D4F0E940C18882379F1E0914402E9
:103480001E9FF0011124EA5BFD4F40815181628152
:103490007381848195810E9472178091440290E02B
:1034A00001968770992780934402D9CF4F81588520
:1034B00069857A858B859C850E947217CFCF0E9483
:1034C0003B171092450210924402E6E7F2E086E0D4
:1034D000DF011D928A95E9F7C1CF2C960FB6F894BB
:1034E000DEBF0FBECDBFDF91CF911F910895EF9248
:1034F000FF920F931F93CF93DF938C01892B09F4D5
:103500006CC0F12CEE24E394E8012196F80184913B
:10351000843740F4843008F051C0813081F082302B
:1035200019F15BC0853709F444C0A8F19CE7980FF6
:10353000903708F052C08F770E94441441C00E5F4C
:103540001F4FFE01C49180E28C0F883048F4C77091
:103550008E2D01C0880FCA95EAF70E94531D14C032
:103560008C2F0E9471132DC00E5F1F4FFE01C4915E
:1035700080E28C0F883058F4C7708E2D01C0880F00
:10358000CA95EAF70E94591D0E947A1D1AC08C2F15
:103590000E94441416C00E5F1F4FFE01C491CC233D
:1035A00081F08FE99FE00197F1F700C00000C15062
:1035B000F6CF0E5F1F4FFE01F49003C00E947113FF
:1035C0008E018F2D882309F49FCFEFE9FFE031971B
:1035D000F1F700C000008150F5CFDF91CF911F912E
:1035E0000F91FF90EF90089508956093800270937B
:1035F000810280938202909383020C9427170F9389
:103600001F930091800210918102209182023091DB
:103610008302DC01CB01802B912BA22BB32B809357
:10362000800290938102A0938202B09383021F9143
:103630000F910C9427170F931F9300918002109104
:1036400081022091820230918302DC01CB01802330
:103650009123A223B3238093800290938102A093AD
:103660008202B09383021F910F910C9427170F933E
:103670001F9300918002109181022091820230916B
:103680008302DC01CB0180279127A227B3278093F7
:10369000800290938102A0938202B09383021F91D3
:1036A0000F910C94271710927C0210927D021092B9
:1036B0007E0210927F020C94271741E050E060E0F8
:1036C00070E004C0440F551F661F771F8A95D2F71C
:1036D00040937C0250937D0260937E0270937F0240
:1036E0000C94271741E050E060E070E004C0440F04
:1036F000551F661F771F8A95D2F780917C029091A3
:103700007D02A0917E02B0917F02482B592B6A2B3B
:103710007B2B40937C0250937D0260937E027093DA
:103720007F020C94271741E050E060E070E004C095
:10373000440F551F661F771F8A95D2F74095509505
:103740006095709580917C0290917D02A0917E029F
:10375000B0917F02482359236A237B2340937C0244
:1037600050937D0260937E0270937F020C94271722
:1037700041E050E060E070E004C0440F551F661F58
:10378000771F8A95D2F780917C0290917D02A0915B
:103790007E02B0917F02482759276A277B274093F2
:1037A0007C0250937D0260937E0270937F020C94A2
:1037B00027170F931F9300917C0210917D02209197
:1037C0007E0230917F02DC01CB01802B912BA22B5A
:1037D000B32B80937C0290937D02A0937E02B093E2
:1037E0007F021F910F910C9427170F931F93009145
:1037F0007C0210917D0220917E0230917F02DC01DB
:10380000CB0180239123A223B32380937C02909346
:103810007D02A0937E02B0937F021F910F910C94C2
:1038200027170F931F9300917C0210917D02209126
:103830007E0230917F02DC01CB0180279127A227F5
:10384000B32780937C0290937D02A0937E02B09375
:103850007F021F910F910C9427170895CF92DF924A
:10386000EF92FF920F931F93CF93DF938C01C09041
:103870008002D0908102E0908202F09083028091D9
:103880007C0290917D02A0917E02B0917F02C82AB5
:10389000D92AEA2AFB2ACFE1D0E0D701C6010C2EB3
:1038A00004C0B695A795979587950A94D2F780FF9F
:1038B00006C0B8018C2F0E948B08019721F4219734
:1038C00060F780E001C08C2FDF91CF911F910F91A5
:1038D000FF90EF90DF90CF900895CF93DF93EC01AE
:1038E0000E942E1CBE010E948B08DF91CF9108958B
:1038F000CB010E946D1C0895809184028595859569
:1039000085950895809184028770089598E0899F35
:1039100090011124262B209384020C94721B209179
:1039200084028095822380938402982F977069F493
:1039300030E0482F082E000C550B2417350729F0CE
:103940008595859585950C94931B08959091840297
:10395000977081E009F480E0089590911401992313
:1039600021F09091210397FD09C02091030130912E
:103970000401F90132969FEF40E01FC0982F969501
:10398000969596959F3150F5E0910301F0910401D1
:10399000E90FF11D877021E030E0A90102C0440F5A
:1039A000551F8A95E2F7CA019181892B8183089579
:1039B0009F3F39F04F5F4E3141F051915813F8CF8E
:1039C0000DC05111F7CF942FF5CF9F3F39F0F9017A
:1039D000E90FF11D97FDFA9582830895089590915E
:1039E0001401992321F09091210397FD09C02091A2
:1039F000030130910401F9013296205E3F4F1FC050
:103A0000982F9695969596959F31F0F4E091030145
:103A1000F0910401E90FF11D877021E030E0A90168
:103A200002C0440F551F8A95E2F7CA018095918123
:103A30008923818308953196E217F30729F0908155
:103A40009813F9CF1082F7CF089581E090E0E091CC
:103A50000301F0910401E80FF91F108201968032F2
:103A60009105A9F708959091A802892B8093A80247
:103A7000089580959091A80289238093A8020895C3
:103A80001092A80208959091A702892B8093A70213
:103A9000089580959091A70289238093A7020895A5
:103AA0001092A70208959091A602892B8093A602F6
:103AB000089580959091A60289238093A602089587
:103AC0001092A602089580938502089510928502AF
:103AD00008958091030190910401FC0131969C01AD
:103AE000205E3F4F80E0919191118F5FE217F307C5
:103AF000D1F70895E0910301F09104018091A802AB
:103B00008083E0910301F091040190818091A702EC
:103B1000892B8083E0910301F091040190818091D1
:103B2000A602892B808380918502882361F0E09131
:103B30000301F09104019081892B80830E94691D0B
:103B400081111092850280910301909104010C94DF
:103B50000812CF92DF92EF92FF926C01EE24FF24C5
:103B6000C114D104E104F10421F0C701B60120E140
:103B700001C020E0C72ED82EE92EFF24C114D104A5
:103B8000E104F10419F0285FC701B6016B017C0163
:103B900054E0F694E794D794C7945A95D1F7C1149A
:103BA000D104E104F10419F02C5FC701B6016B01E7
:103BB0007C0142E0F694E794D794C7944A95D1F7F4
:103BC000C114D104E104F10419F02E5FC701B6015C
:103BD000DC01CB01B695A79597958795892B8A2B04
:103BE0008B2B09F02F5F822FFF90EF90DF90CF900B
:103BF00008956DEE7EEF80E090E00E94212C60E061
:103C000082E090E00E94032C60E083E090E00E945C
:103C1000032C60E084E090E00E94032C60E085E0EB
:103C200090E00E94032C40E050E0BA0188E090E070
:103C30000C94152C80E090E00E94FD2B21E08D3E3D
:103C40009E4F09F020E0822F089582E090E00C94CE
:103C5000EF2B83E090E00C94EF2B84E090E00C9449
:103C6000EF2B682F84E090E00C94032C80912703C5
:103C7000843039F11092AA0220E488E190E00FB676
:103C8000F894A895809360000FBE2093600080E0B8
:103C90000E94890883B7817F846083BF83B7816076
:103CA00083BF7894889583B78E7F83BF0FB6F894CF
:103CB000A8958091600088618093600010926000F8
:103CC0000FBE08950895CF930E9483050E94960524
:103CD0000E94621EC0E08C2F0E948406811104C0E5
:103CE000CF5FCE30C1F701C081E0CF9108950E942F
:103CF0003B170E94FC110C9489081F920F920FB67B
:103D00000F9211248F939F93AF93BF938091AA0238
:103D1000811113C080911D0390911E03A0911F0378
:103D2000B09120034196A11DB11D80931D03909376
:103D30001E03A0931F03B0932003BF91AF919F91E7
:103D40008F910F900FBE0F901F90189582E084BD49
:103D500093E095BD9AEF97BD80936E0008952FB7BD
:103D6000F89480911D0390911E03A0911F03B091C0
:103D700020032FBF0895CF92DF92EF92FF920F930F
:103D80001F932FB7F89440911D0350911E0360912B
:103D90001F03709120032FBF6A017B01EE24FF24D3
:103DA0008C0120E030E0C016D106E206F30610F4E4
:103DB000415051099A01281B390BC9011F910F91DC
:103DC000FF90EF90DF90CF9008951F920F920FB663
:103DD0000F9211248F939F93AF93BF9380911D03F4
:103DE00090911E03A0911F03B09120030196A11D85
:103DF000B11D80931D0390931E03A0931F03B093E6
:103E00002003BF91AF919F918F910F900FBE0F90A4
:103E10001F9018950E949227F8942FEF87EA91E659
:103E2000215080409040E1F700C0000087E090EB17
:103E3000DC018093300390933103A0933203B0935D
:103E400033039CE088E10FB6F894A8958093600056
:103E50000FBE90936000FFCF0E941A1E811102C016
:103E60000E94F91D0E94251E8093A9020E942D1E0A
:103E700090E090932203809321030E94291E682FD3
:103E800070E080E090E00C94F51A8091AE0280FF23
:103E90000BC06091080185E0689FB0011124759501
:103EA0006795759567952BC081FF09C060910801E2
:103EB00085E0689FB00111247595679520C082FF49
:103EC00007C06091080185E0689FB001112417C008
:103ED0009091AF029923D1F060910701961788F76E
:103EE0002091080185E0289F90011124929FA00154
:103EF000939F500D112470E0CA010E94D52B6038A9
:103F0000710540F46115710539F002C065E070E09B
:103F1000862F08958FE7089581E008958091AE027D
:103F200080FF08C06091060170E0759567957595F2
:103F3000679521C081FF06C06091060170E075950C
:103F4000679519C082FF04C06091060170E010C03F
:103F50009091AF029923C1F0609105019617A0F7E7
:103F600080910601899FC001112470E00E94D52B29
:103F70006038710528F46115710521F0862F0895C8
:103F80008FE7089581E0089561E070E0F4CF803F0D
:103F900021F40E94451F819504C0813F29F40E94AD
:103FA000451F8093B2020895823F21F40E94451F6D
:103FB000819504C0833F29F40E94451F8093B1027C
:103FC0000895893F19F40E948E1F05C08A3F31F47D
:103FD0000E948E1F81958093B30208958B3F21F438
:103FE0000E948E1F819504C08C3F29F40E948E1F71
:103FF0008093B4020895843F21F48091B0028160DF
:1040000017C0853F21F48091B002826011C0863FC5
:1040100021F48091B00284600BC0873F21F480912D
:10402000B002886005C0883F31F48091B0028061A1
:104030008093B00208958D3F21F48091AE0281609B
:104040000BC08E3F21F48091AE02826005C08F3F8D
:1040500029F48091AE0284608093AE020895803F7F
:1040600039F48091B20287FF6CC01092B20269C02D
:10407000813F29F48091B2021816BCF362C090917E
:10408000B102823F29F497FF5CC01092B10259C07F
:10409000833F19F41916CCF354C0893F41F4809141
:1040A000B30218160CF04DC01092B3024AC08A3FFA
:1040B00029F48091B30287FF44C0F6CF8B3F39F4D7
:1040C0008091B40287FF3DC01092B4023AC08C3F89
:1040D00029F48091B4021816BCF333C0843F21F454
:1040E0008091B0028E7F17C0853F21F48091B0028D
:1040F0008D7F11C0863F21F48091B0028B7F0BC071
:10410000873F21F48091B002877F05C0883F31F45A
:104110008091B0028F7E8093B00213C08D3F21F456
:104120008091AE028E7F0BC08E3F21F48091AE0253
:104130008D7F05C08F3F29F48091AE028B7F8093E5
:10414000AE028091B10281110EC08091B202811144
:104150000AC08091B302811106C08091B40281111E
:1041600002C01092AF02089580EB92E00E941312F9
:104170000E94AF1E9093AC028093AB0208951F93F0
:10418000CF93DF938091AB029091AC020E94BB1E53
:10419000AC019091AF02992321F02091090130E008
:1041A00006C02091AD028AE0289F90011124421799
:1041B000530708F485C08091B102C091B202D0913A
:1041C000B3021091B402811107C0C11175C0D111A1
:1041D00073C0111171C074C09F3F19F09F5F90931D
:1041E000AF02181624F40E94451F8093B1028091FB
:1041F000B10287FF05C00E94451F81958093B102DF
:104200001C1624F40E94451F8093B2028091B202D2
:1042100087FF05C00E94451F81958093B20260917F
:10422000B102662331F1C091B202CC2311F1062E06
:10423000000C770B880B990B0E94C82A23E333E309
:1042400043E35FE30E942C2B0E94902A6093B1020B
:104250006C2FCC0F770B880B990B0E94C82A23E395
:1042600033E343E35FE30E942C2B0E94902A609388
:10427000B2021D1624F40E948E1F8093B302809117
:10428000B30287FF05C00E948E1F81958093B30201
:10429000111624F40E948E1F8093B4028091B40200
:1042A00087FF05C00E948E1F81958093B402DF9125
:1042B000CF911F910C94B4209F3F09F08FCF97CFDF
:1042C000DF91CF911F910895E0EBF2E085E0DF01EF
:1042D0001D928A95E9F71092AF021092AE020895EE
:1042E000833081F128F4813059F08230D1F0089583
:1042F000853009F449C0B8F1863009F456C00895F4
:104300008091AD02262F30E0280F311D2F3F31055F
:1043100024F4680F6093AD0208958FEF8093AD028F
:10432000089580910901262F30E0280F311D2F3F7D
:10433000310524F4680F6093090108958FEF80938D
:104340000901089580910801262F30E0280F311DC2
:104350002F3F310524F4680F6093080108958FEF13
:1043600080930801089580910701262F30E0280FDF
:10437000311D2F3F310524F4680F60930701089524
:104380008FEF80930701089580910601262F30E07A
:10439000280F311D2F3F310524F4680F609306016B
:1043A00008958FEF80930601089580910501262FCF
:1043B00030E0280F311D2F3F310524F4680F609342
:1043C000050108958FEF809305010895833011F161
:1043D00028F4813049F0823091F00895853081F1E0
:1043E00020F18630C1F108958091AD02681720F464
:1043F000861B8093AD0208951092AD0208958091BE
:104400000901681720F4861B809309010895109212
:104410000901089580910801681720F4861B809394
:104420000801089510920801089580910701681706
:1044300020F4861B809307010895109207010895C8
:1044400080910601681720F4861B80930601089569
:1044500010920601089580910501681720F4861BCB
:104460008093050108951092050108950F931F93FD
:10447000873208F04DC08E3108F093C0803109F4C6
:104480007DC008F5873009F46BC068F4863009F008
:10449000A3C08091A902817F8E7F8093A90281E0D1
:1044A0008093B6029AC08B3009F48FC08E3009F029
:1044B00093C08091A90282FB222720F991E09227E4
:1044C00090FB82F964C0863109F47FC088F48131A1
:1044D00009F082C00E943B178091210387FB2227AD
:1044E00020F991E0922790FB87F9809321036DC01A
:1044F000893109F46AC08B3109F06EC08091A9023C
:1045000081FB222720F991E0922790FB81F93FC09F
:10451000883309F45AC050F4893209F458C08533FD
:1045200009F455C0873209F452C056C0833409F4E7
:104530004EC028F48A3308F44FC0895333C08834FE
:1045400009F04AC00E943B170FEF13ED20E3015022
:1045500010402040E1F700C000000E940A1F35C053
:104560008091A902982F9095917090FB80F980938B
:10457000A90291112AC0897F877F10C08091A9026A
:1045800083FB222720F991E0922790FB83F9809307
:10459000A9029923D1F08091A90281608093A90298
:1045A00014C08D5141E050E060E070E08A019B0151
:1045B00004C0000F111F221F331F8A95D2F7C901B3
:1045C000B8010E94F51A0E943B1781E006C061E025
:1045D00070E080E090E0F5CF80E01F910F910895AA
:1045E00080E0089580E008958E518A3030F4E82FFD
:1045F000F0E0E354FE4F8081089580E00895CF936A
:10460000C82F8091B602813079F018F08230E9F13C
:1046100085C0E0910301F09104018081813169F04E
:10462000823209F07DC009C0E0910301F0910401DC
:104630008081813111F0823261F48C2F0E94F0224E
:10464000811104C08C2F0E9436221DC081E090E0B1
:104650001AC08C2F0E94F222811114C0C43179F04B
:1046600048F4CB3079F0C03109F05EC082E080932D
:10467000B60208C0C93219F0C83321F055C01092F3
:10468000B60252C081E0817051C0C93279F108F59B
:10469000C43161F1A0F4C73009F044C01092AD02FA
:1046A00094E1909309018093080185E080930701CC
:1046B00088E08093060188E28093050133C082EE92
:1046C0008C0F863078F58C2F0E94F4228093B502EF
:1046D00029C0CE34E9F020F4CB3421F56AE013C0D0
:1046E000C13579F0C235F1F461E00DC08091B502B9
:1046F000882319F01092B50215C081E08093B602AC
:1047000015C061E006C08091B5020E9470210AC008
:104710006AE08091B5020E94E62104C01092B602C0
:1047200080E004C081E002C080E0ADCFCF91089569
:104730008091D7020895CF93DF9300D01F92CDB719
:10474000DEB79C0180912703843019F593E09983AB
:104750003B832A839093E9008FEF9091E80081508A
:1047600095FD06C095ED9A95F1F700008111F5CF02
:104770008091E80085FF0DC040E050E063E070E00C
:10478000CE0101960E94FD258091E8008E778093EE
:10479000E8000F900F900F90DF91CF910895CF9385
:1047A000DF9300D01F92CDB7DEB7209127032430CE
:1047B00021F522E029839B838A8383E08093E900AB
:1047C0008FEF9091E800815095FD06C095ED9A9588
:1047D000F1F700008111F5CF8091E80085FF0DC051
:1047E00040E050E063E070E0CE0101960E94FD25BC
:1047F0008091E8008E778093E8000F900F900F90E3
:10480000DF91CF910895209127032430F1F422E025
:104810002093E9002FEF3091E800215035FD06C0CC
:1048200035ED3A95F1F700002111F5CF2091E80020
:1048300025FF0BC040E050E065E070E00E94FD25E0
:104840008091E8008E778093E8000895CF93DF93FE
:10485000EC0190912703943009F046C08091140137
:104860008823D9F08091210387FF17C09093E90036
:104870008FEF9091E800815095FD06C095E19A95E3
:10488000F1F700008111F5CF8091E80085FF2CC081
:1048900040E050E060E270E017C081E08093E90002
:1048A0008FEF9091E800815095FD06C095ED9A95A7
:1048B000F1F700008111F5CF8091E80085FF14C069
:1048C00040E050E068E070E0CE010E94FD2580915C
:1048D000E8008E778093E80080E2FE01A7EBB2E06B
:1048E00001900D928A95E1F7DF91CF910895809123
:1048F0002603811109C00E9492270E94EF27809110
:10490000E20084608093E2000895109226030895E7
:10491000089508950C94771E42E061EC81E00E94B6
:104920000C2742E061EC82E00E940C2742E061EC3F
:1049300083E00E940C2742E261EC84E00C940C2797
:1049400080912903833009F455C030F4813071F02F
:10495000823009F48EC008958A3009F47AC08B3011
:1049600009F460C0893009F09CC020C08091280300
:10497000813A09F096C08091E800877F8093E80033
:1049800080912C0390912D03892B21F460E287EB19
:1049900092E003C060E080E090E070E00E94482672
:1049A0008091E8008B778093E80008958091280338
:1049B000813209F076C080912C0390912D030097ED
:1049C00019F0039709F06DC08091E800877F80930C
:1049D000E8008091E80082FD05C0809127038111E5
:1049E000F8CF5FC08091F1008093D7028091E800FA
:1049F0008B7753C080912803813A09F052C080918F
:104A00002C0390912D03892B09F04BC08091E80075
:104A1000877F8093E8008091E80080FFFCCF809141
:104A2000140136C0809128038132D9F580912C037E
:104A300090912D03892BA9F58091E800877F8093C1
:104A4000E8000E94412780912A03809314010C946E
:104A50003B1780912803813221F58091E800877F00
:104A60008093E8000E94412780912B038093D80215
:104A7000089580912803813AA1F48091E800877F0E
:104A80008093E8008091E80080FFFCCF8091D802FD
:104A90008093F1008091E8008E778093E8000C9479
:104AA0004127089584B7877F84BF0FB6F894A895EF
:104AB00080916000886180936000109260000FBE5A
:104AC00080E880936100109261000E944B120E9466
:104AD00092270E94EF278091E20084608093E20099
:104AE00078940E94752A0E944D128AE091E00E94FB
:104AF000F71180912703853069F40E94361E80915A
:104B000025038823B1F30E94631E882391F30E943A
:104B1000E725EFCF0E9455120E94C611EACF292F38
:104B2000332723303105C9F064F42130310581F099
:104B30002230310509F043C08DE690E027ED37E0E3
:104B400042C021323105F1F02232310541F137C046
:104B500082E190E024E438E036C099278130910565
:104B600041F08230910541F0892B49F5E3EDF7E002
:104B700005C0EBEBF7E002C0E3EAF7E0849190E0D8
:104B80009F0121C06430D8F4E62FF0E0EE0FFF1F44
:104B9000ED52FE4F2081318189E090E014C06430F5
:104BA00070F470E0FB01EE0FFF1FE553FE4F208114
:104BB0003181FB01E953FE4F808190E004C080E029
:104BC00090E020E030E0FA0131832083089580E115
:104BD00089BD82E189BD09B400FEFDCF8091D80076
:104BE0008F7D8093D8008091E00082608093E00008
:104BF0008091E00081FDFCCF0895CF92DF92EF928B
:104C0000FF920F931F93CF93DF93EC018B016A0107
:104C10000E946027811133C0C114D10439F0F6011C
:104C200080819181081B190BC80FD91FE12CF12C31
:104C30000115110519F18091E80085FD16C08091DC
:104C4000E8008E778093E800C114D10449F0F601A2
:104C500080819181E80EF91EF182E08285E00FC02B
:104C60000E946027882321F30AC089918093F10074
:104C700001501109FFEFEF1AFF0ADACF80E0DF9150
:104C8000CF911F910F91FF90EF90DF90CF900895FB
:104C900020912E0330912F032617370748F0611516
:104CA000710539F42091E8002E772093E80001C0C7
:104CB000B90140E061157105A9F120912703222374
:104CC00009F443C0253009F442C02091E80023FDD7
:104CD00040C02091E80022FD32C02091E80020FF72
:104CE000E9CF4091F3002091F20030E0342BFC0139
:104CF000CF016115710559F02830310540F48191DB
:104D00008093F100615071092F5F3F4FF1CF41E077
:104D10002830310509F040E02091E8002E772093FB
:104D2000E800C8CF4111C9CF0AC08091270388236A
:104D300061F0853061F08091E80083FD0AC08091C8
:104D4000E80082FFF2CF80E0089582E0089583E0DA
:104D5000089581E0089520912E0330912F032617A6
:104D6000370748F06115710539F42091E8002E7776
:104D70002093E80001C0B901FC0120E06115710534
:104D800091F180912703882309F440C0853009F40C
:104D90003FC08091E80083FD3DC08091E80082FD26
:104DA0002FC08091E80080FFE9CF2091F30080912F
:104DB000F20090E0922B6115710559F08830910551
:104DC00040F424912093F1003196615071090196CD
:104DD000F2CF21E0089709F020E08091E8008E777B
:104DE0008093E800CBCF2111CCCF0AC0809127035C
:104DF000882361F0853061F08091E80083FD0AC06E
:104E00008091E80082FFF2CF80E0089582E008956B
:104E100083E0089581E00895982F973058F5909396
:104E2000E900981739F07091EC002091ED00509155
:104E3000F00003C0242F762F50E021FF19C03091DD
:104E4000EB003E7F3093EB003091ED003D7F3093DF
:104E5000ED003091EB0031603093EB007093EC008B
:104E60002093ED005093F0002091EE0027FF07C043
:104E70009F5FD3CF8F708093E90081E0089580E039
:104E800008958091280387FF11C08091E80082FD7A
:104E900005C0809127038111F8CF11C08091E800EF
:104EA0008B770BC080912703882349F08091E8001D
:104EB00080FFF8CF8091E8008E778093E800089516
:104EC0002091E4003091E50095E64091EC00842FBC
:104ED000817040FF22C08091E80080FD1CC080915D
:104EE0002703882391F0853091F08091EB0085FDB8
:104EF00010C04091E4005091E5004217530729F398
:104F00009A01915011F784E0089582E0089583E0BA
:104F1000089581E0089580E008954091E80042FFFF
:104F2000DECF08950E9400280E940828E0EEF0E0FD
:104F3000808181608083E8EDF0E080818F778083DD
:104F400019BCA7EDB0E08C918E7F8C9380818F7E11
:104F500080831092260308950F931F93CF93DF93BE
:104F60000E9400280E940828C8EDD0E088818F7731
:104F7000888388818068888388818F7D888319BC35
:104F800010922703109223031092250310922403FA
:104F900000EE10E0F80180818B7F80838881816042
:104FA000888342E060E080E00E940C27E1EEF0E0C0
:104FB00080818E7F8083E2EEF0E08081816080835B
:104FC000808188608083F80180818E7F80838881E2
:104FD00080618883DF91CF911F910F910895E8ED53
:104FE000F0E080818F7E8083E7EDF0E0808181605A
:104FF000808384E082BF81E0809326030C94AC27F9
:10500000E8EDF0E080818E7F80831092E2000895C9
:105010001092DA001092E10008951F920F920FB6DD
:105020000F9211242F933F934F935F936F937F932E
:105030008F939F93AF93BF93EF93FF938091E10082
:1050400082FF0BC08091E20082FF07C08091E100E7
:105050008B7F8093E1000E94742A8091DA0080FFA8
:105060001FC08091D80080FF1BC08091DA008E7F26
:105070008093DA008091D90080FF0DC080E189BD66
:1050800082E189BD09B400FEFDCF81E08093270352
:105090000E94772405C019BC109227030E94852422
:1050A0008091E10080FF19C08091E20080FF15C06F
:1050B0008091E2008E7F8093E2008091E200806127
:1050C0008093E2008091D80080628093D80019BC60
:1050D00085E0809327030E9489248091E10084FF6A
:1050E00030C08091E20084FF2CC080E189BD82E164
:1050F00089BD09B400FEFDCF8091D8008F7D8093DB
:10510000D8008091E1008F7E8093E1008091E200E1
:105110008F7E8093E2008091E20081608093E200C4
:1051200080912303882311F084E007C08091E3007D
:1051300087FD02C081E001C083E0809327030E94C5
:105140008A248091E10083FF29C08091E20083FFDF
:1051500025C08091E100877F8093E10082E0809309
:105160002703109223038091E1008E7F8093E1005A
:105170008091E2008E7F8093E2008091E200806166
:105180008093E20042E060E080E00E940C27809182
:10519000F00088608093F0000E948824FF91EF91D6
:1051A000BF91AF919F918F917F916F915F914F913F
:1051B0003F912F910F900FBE0F901F9018951F9247
:1051C0000F920FB60F9211242F933F934F935F933B
:1051D0006F937F938F939F93AF93BF93CF93DF93FF
:1051E000EF93FF93C091E900CF708091EC00D82F2E
:1051F000D17080FDD0E81092E9008091F000877FA7
:105200008093F00078940E9423291092E900809105
:10521000F00088608093F000CD2BCF70C093E90040
:10522000FF91EF91DF91CF91BF91AF919F918F91BE
:105230007F916F915F914F913F912F910F900FBE92
:105240000F901F9018951F93CF93DF93CDB7DEB7C4
:10525000AA970FB6F894DEBF0FBECDBFE8E2F3E029
:1052600088E08E0F9091F10091938E13FBCF0E94F6
:10527000A0248091E80083FF1FC1809128039091B2
:105280002903492F50E04A30510508F015C1FA01B1
:10529000EE55FF4F0C94E92B803881F0823809F0ED
:1052A0000BC180912C038F708093E9008091EB00FB
:1052B00085FB882780F91092E90006C080912403BD
:1052C00090912503911182609091E800977F9093CF
:1052D000E8008093F1001092F100C8C0282F2D7FC4
:1052E00009F0EAC0882319F0823061F0E5C08091AE
:1052F0002A03813009F0E0C0933009F080E0809308
:1053000025032BC080912A03811127C080912C0393
:105310008F7009F4D1C08093E9002091EB0020FF49
:105320001CC0933021F48091EB00806214C09091F6
:10533000EB0090619093EB0021E030E0A90102C006
:10534000440F551F8A95E2F74093EA001092EA0055
:105350008091EB0088608093EB001092E9008091CF
:10536000E800877F86C08111A7C010912A031F77AC
:105370008091E3008078812B8093E3008091E800A6
:10538000877F8093E8000E9441278091E80080FF9A
:10539000FCCF8091E30080688093E300111102C08C
:1053A00082E001C083E08093270386C0805882306A
:1053B00008F082C080912A0390912B038C3D53E02A
:1053C000950779F583E08A838AE289834FB7F89459
:1053D000DE01139620E03EE051E2E32FF0E050932F
:1053E0005700E49120FF03C0E295EF703F5FEF703C
:1053F0008E2F90E0EA3010F0C79601C0C0968D93D2
:105400009D932F5F243149F74FBF8091E800877F3C
:105410008093E8006AE270E0CE0101960E9448267F
:1054200014C0AE014F5F5F4F60912C030E948F2527
:10543000BC01892B09F440C09091E800977F9093BC
:10544000E80089819A810E94AB268091E8008B77E1
:105450008093E80031C0803879F58091E800877F3B
:105460008093E800809123038093F1008091E8000D
:105470008E778093E8000E9441271EC081111CC0D6
:1054800090912A039230C0F48091E800877F809346
:10549000E800909323030E94412780912303811108
:1054A00006C08091E30087FD02C081E001C084E076
:1054B000809327030E948C248091E80083FF0AC018
:1054C0008091E800877F8093E8008091EB00806204
:1054D0008093EB00AA960FB6F894DEBF0FBECDBF47
:1054E000DF91CF911F9108950895CF938091270365
:1054F0008823A1F0C091E900CF709091EC00892F32
:10550000817090FD80E8C82B1092E9008091E8003E
:1055100083FD0E942329CF70C093E900CF910895A5
:105520000E94972A6894B1110C94262B08950E942A
:105530000B2B88F09F5798F0B92F9927B751B0F0EF
:10554000E1F0660F771F881F991F1AF0BA95C9F707
:1055500014C0B13091F00E94252BB1E008950C9455
:10556000252B672F782F8827B85F39F0B93FCCF308
:10557000869577956795B395D9F73EF49095809584
:10558000709561957F4F8F4F9F4F0895E89409C0A4
:1055900097FB3EF490958095709561957F4F8F4F66
:1055A0009F4F9923A9F0F92F96E9BB279395F6957C
:1055B000879577956795B795F111F8CFFAF4BB0FFA
:1055C00011F460FF1BC06F5F7F4F8F4F9F4F16C05E
:1055D000882311F096E911C0772321F09EE8872FE8
:1055E000762F05C0662371F096E8862F70E060E0A4
:1055F0002AF09A95660F771F881FDAF7880F96951D
:10560000879597F9089557FD9058440F551F59F005
:105610005F3F71F04795880F97FB991F61F09F3F9F
:1056200079F087950895121613061406551FF2CFC8
:105630004695F1DF08C0161617061806991FF1CF18
:1056400086957105610508940895E894BB2766273F
:105650007727CB0197F908950E943F2B0C94B02B2C
:105660000E94A22B38F00E94A92B20F0952311F064
:105670000C94992B0C949F2B11240C94262B0E9494
:10568000032B70F3959FC1F3950F50E0551F629F58
:10569000F001729FBB27F00DB11D639FAA27F00D8B
:1056A000B11DAA1F649F6627B00DA11D661F829FB2
:1056B0002227B00DA11D621F739FB00DA11D621F97
:1056C000839FA00D611D221F749F3327A00D611DB4
:1056D000231F849F600D211D822F762F6A2F112496
:1056E0009F5750409AF0F1F088234AF0EE0FFF1FC9
:1056F000BB1F661F771F881F91505040A9F79E3F20
:10570000510580F00C94992B0C94262B5F3FE4F309
:10571000983ED4F3869577956795B795F795E79575
:105720009F5FC1F7FE2B880F911D9695879597F97E
:10573000089597F99F6780E870E060E008959FEF13
:1057400080EC089500240A94161617061806090618
:10575000089500240A9412161306140605060895E7
:10576000092E0394000C11F4882352F0BB0F40F46F
:10577000BF2B11F460FF04C06F5F7F4F8F4F9F4FAF
:105780000895AA1BBB1B51E107C0AA1FBB1FA61788
:10579000B70710F0A61BB70B881F991F5A95A9F7DA
:1057A00080959095BC01CD01089597FB072E16F4C6
:1057B000009407D077FD09D00E94C12B07FC05D0CB
:1057C0003EF4909581959F4F0895709561957F4F18
:1057D0000895EE0FFF1F0590F491E02D0994F999BB
:1057E000FECF92BD81BDF89A992780B50895A6E1B4
:1057F000B0E044E050E00C94292CA8E1B0E042E095
:1058000050E00C94292C262FF999FECF92BD81BD32
:10581000F89A019700B4021639F01FBA20BD0FB6EE
:10582000F894FA9AF99A0FBE08950396272F0E94CA
:10583000042C0E94032C252F0E94042C242F0C944E
:10584000042C0196272F0E94042C0C94032CDC01BD
:10585000CB01FC01F999FECF06C0F2BDE1BDF89A7B
:10586000319600B40D9241505040B8F70895F89425
:02587000FFCF68
:105872000520FF8602280805021498232624032403
:10588200CF239B2301000D010D020D030D040D0515
:105892000D000C010C020C030C040C050C000B0196
:1058A2000B020B030B040B050B000A010A020A038D
:1058B2000A040A050A000901090209030904090583
:1058C2000900080108020803080408050800070186
:1058D200070207030704070507000601060206037D
:1058E2000604060506000501050205030504050573
:1058F2000500040104020403040404050400030176
:10590200030203030304030503000201020202036C
:105912000204020502000101010201030104010562
:10592200010000010002000300040005000102035F
:1059320004050607080900404D36391209C5088FCB
:0C594200085608E90702081B083408009A
:00000001FF
